{
  "contractName": "AgriMarketplace",
  "abi": [
    {
      "anonymous": false,
      "inputs": [
        {
          "indexed": false,
          "internalType": "uint256",
          "name": "id",
          "type": "uint256"
        },
        {
          "indexed": false,
          "internalType": "string",
          "name": "name",
          "type": "string"
        },
        {
          "indexed": false,
          "internalType": "string",
          "name": "location",
          "type": "string"
        },
        {
          "indexed": false,
          "internalType": "uint256",
          "name": "price",
          "type": "uint256"
        },
        {
          "indexed": false,
          "internalType": "address",
          "name": "seller",
          "type": "address"
        }
      ],
      "name": "ProductCreated",
      "type": "event"
    },
    {
      "anonymous": false,
      "inputs": [
        {
          "indexed": false,
          "internalType": "uint256",
          "name": "id",
          "type": "uint256"
        },
        {
          "indexed": false,
          "internalType": "address",
          "name": "buyer",
          "type": "address"
        }
      ],
      "name": "ProductPurchased",
      "type": "event"
    },
    {
      "inputs": [],
      "name": "productCount",
      "outputs": [
        {
          "internalType": "uint256",
          "name": "",
          "type": "uint256"
        }
      ],
      "stateMutability": "view",
      "type": "function",
      "constant": true
    },
    {
      "inputs": [
        {
          "internalType": "uint256",
          "name": "",
          "type": "uint256"
        }
      ],
      "name": "products",
      "outputs": [
        {
          "internalType": "uint256",
          "name": "id",
          "type": "uint256"
        },
        {
          "internalType": "string",
          "name": "name",
          "type": "string"
        },
        {
          "internalType": "string",
          "name": "location",
          "type": "string"
        },
        {
          "internalType": "uint256",
          "name": "price",
          "type": "uint256"
        },
        {
          "internalType": "address payable",
          "name": "seller",
          "type": "address"
        },
        {
          "internalType": "address",
          "name": "buyer",
          "type": "address"
        },
        {
          "internalType": "bool",
          "name": "purchased",
          "type": "bool"
        }
      ],
      "stateMutability": "view",
      "type": "function",
      "constant": true
    },
    {
      "inputs": [
        {
          "internalType": "string",
          "name": "_name",
          "type": "string"
        },
        {
          "internalType": "string",
          "name": "_location",
          "type": "string"
        },
        {
          "internalType": "uint256",
          "name": "_price",
          "type": "uint256"
        }
      ],
      "name": "createProduct",
      "outputs": [],
      "stateMutability": "nonpayable",
      "type": "function"
    },
    {
      "inputs": [
        {
          "internalType": "uint256",
          "name": "_id",
          "type": "uint256"
        }
      ],
      "name": "purchaseProduct",
      "outputs": [],
      "stateMutability": "payable",
      "type": "function",
      "payable": true
    }
  ],
  "bytecode": "0x60806040525f8055348015610012575f80fd5b5061118f806100205f395ff3fe60806040526004361061003e575f3560e01c806338e76a03146100425780637acc0b201461005e578063a1422209146100a0578063e0f6ef87146100c8575b5f80fd5b61005c600480360381019061005791906107a1565b6100f2565b005b348015610069575f80fd5b50610084600480360381019061007f91906107a1565b610382565b60405161009797969594939291906108de565b60405180910390f35b3480156100ab575f80fd5b506100c660048036038101906100c19190610a85565b610517565b005b3480156100d3575f80fd5b506100dc610758565b6040516100e99190610b0d565b60405180910390f35b5f60015f8381526020019081526020015f2090505f8211801561011657505f548211155b610155576040517f08c379a000000000000000000000000000000000000000000000000000000000815260040161014c90610b70565b60405180910390fd5b806003015434101561019c576040517f08c379a000000000000000000000000000000000000000000000000000000000815260040161019390610bd8565b60405180910390fd5b8060050160149054906101000a900460ff16156101ee576040517f08c379a00000000000000000000000000000000000000000000000000000000081526004016101e590610c40565b60405180910390fd5b3373ffffffffffffffffffffffffffffffffffffffff16816004015f9054906101000a900473ffffffffffffffffffffffffffffffffffffffff1673ffffffffffffffffffffffffffffffffffffffff160361027f576040517f08c379a000000000000000000000000000000000000000000000000000000000815260040161027690610ca8565b60405180910390fd5b33816005015f6101000a81548173ffffffffffffffffffffffffffffffffffffffff021916908373ffffffffffffffffffffffffffffffffffffffff16021790555060018160050160146101000a81548160ff021916908315150217905550806004015f9054906101000a900473ffffffffffffffffffffffffffffffffffffffff1673ffffffffffffffffffffffffffffffffffffffff166108fc3490811502906040515f60405180830381858888f19350505050158015610344573d5f803e3d5ffd5b507f9ad4ecfaf27ea0cbeebee0ed92fe15c8a84975f1e3d45ccfc526d7751dcf98ff8233604051610376929190610cc6565b60405180910390a15050565b6001602052805f5260405f205f91509050805f0154908060010180546103a790610d1a565b80601f01602080910402602001604051908101604052809291908181526020018280546103d390610d1a565b801561041e5780601f106103f55761010080835404028352916020019161041e565b820191905f5260205f20905b81548152906001019060200180831161040157829003601f168201915b50505050509080600201805461043390610d1a565b80601f016020809104026020016040519081016040528092919081815260200182805461045f90610d1a565b80156104aa5780601f10610481576101008083540402835291602001916104aa565b820191905f5260205f20905b81548152906001019060200180831161048d57829003601f168201915b505050505090806003015490806004015f9054906101000a900473ffffffffffffffffffffffffffffffffffffffff1690806005015f9054906101000a900473ffffffffffffffffffffffffffffffffffffffff16908060050160149054906101000a900460ff16905087565b5f83511161055a576040517f08c379a000000000000000000000000000000000000000000000000000000000815260040161055190610d94565b60405180910390fd5b5f811161059c576040517f08c379a000000000000000000000000000000000000000000000000000000000815260040161059390610dfc565b60405180910390fd5b5f808154809291906105ad90610e47565b91905055506040518060e001604052805f5481526020018481526020018381526020018281526020013373ffffffffffffffffffffffffffffffffffffffff1681526020015f73ffffffffffffffffffffffffffffffffffffffff1681526020015f151581525060015f805481526020019081526020015f205f820151815f01556020820151816001019081610643919061102b565b506040820151816002019081610659919061102b565b50606082015181600301556080820151816004015f6101000a81548173ffffffffffffffffffffffffffffffffffffffff021916908373ffffffffffffffffffffffffffffffffffffffff16021790555060a0820151816005015f6101000a81548173ffffffffffffffffffffffffffffffffffffffff021916908373ffffffffffffffffffffffffffffffffffffffff16021790555060c08201518160050160146101000a81548160ff0219169083151502179055509050507f965ec429b52d166e7f39d678643fac1a6aba80af304381b7ec3f6326d5ebea5a5f548484843360405161074b9594939291906110fa565b60405180910390a1505050565b5f5481565b5f604051905090565b5f80fd5b5f80fd5b5f819050919050565b6107808161076e565b811461078a575f80fd5b50565b5f8135905061079b81610777565b92915050565b5f602082840312156107b6576107b5610766565b5b5f6107c38482850161078d565b91505092915050565b6107d58161076e565b82525050565b5f81519050919050565b5f82825260208201905092915050565b5f5b838110156108125780820151818401526020810190506107f7565b5f8484015250505050565b5f601f19601f8301169050919050565b5f610837826107db565b61084181856107e5565b93506108518185602086016107f5565b61085a8161081d565b840191505092915050565b5f73ffffffffffffffffffffffffffffffffffffffff82169050919050565b5f61088e82610865565b9050919050565b61089e81610884565b82525050565b5f6108ae82610865565b9050919050565b6108be816108a4565b82525050565b5f8115159050919050565b6108d8816108c4565b82525050565b5f60e0820190506108f15f83018a6107cc565b8181036020830152610903818961082d565b90508181036040830152610917818861082d565b905061092660608301876107cc565b6109336080830186610895565b61094060a08301856108b5565b61094d60c08301846108cf565b98975050505050505050565b5f80fd5b5f80fd5b7f4e487b71000000000000000000000000000000000000000000000000000000005f52604160045260245ffd5b6109978261081d565b810181811067ffffffffffffffff821117156109b6576109b5610961565b5b80604052505050565b5f6109c861075d565b90506109d4828261098e565b919050565b5f67ffffffffffffffff8211156109f3576109f2610961565b5b6109fc8261081d565b9050602081019050919050565b828183375f83830152505050565b5f610a29610a24846109d9565b6109bf565b905082815260208101848484011115610a4557610a4461095d565b5b610a50848285610a09565b509392505050565b5f82601f830112610a6c57610a6b610959565b5b8135610a7c848260208601610a17565b91505092915050565b5f805f60608486031215610a9c57610a9b610766565b5b5f84013567ffffffffffffffff811115610ab957610ab861076a565b5b610ac586828701610a58565b935050602084013567ffffffffffffffff811115610ae657610ae561076a565b5b610af286828701610a58565b9250506040610b038682870161078d565b9150509250925092565b5f602082019050610b205f8301846107cc565b92915050565b7f496e76616c6964204944000000000000000000000000000000000000000000005f82015250565b5f610b5a600a836107e5565b9150610b6582610b26565b602082019050919050565b5f6020820190508181035f830152610b8781610b4e565b9050919050565b7f496e73756666696369656e74207061796d656e740000000000000000000000005f82015250565b5f610bc26014836107e5565b9150610bcd82610b8e565b602082019050919050565b5f6020820190508181035f830152610bef81610bb6565b9050919050565b7f416c7265616479207075726368617365640000000000000000000000000000005f82015250565b5f610c2a6011836107e5565b9150610c3582610bf6565b602082019050919050565b5f6020820190508181035f830152610c5781610c1e565b9050919050565b7f53656c6c65722063616e277420627579206f776e2070726f64756374000000005f82015250565b5f610c92601c836107e5565b9150610c9d82610c5e565b602082019050919050565b5f6020820190508181035f830152610cbf81610c86565b9050919050565b5f604082019050610cd95f8301856107cc565b610ce660208301846108b5565b9392505050565b7f4e487b71000000000000000000000000000000000000000000000000000000005f52602260045260245ffd5b5f6002820490506001821680610d3157607f821691505b602082108103610d4457610d43610ced565b5b50919050565b7f50726f64756374206e616d6520726571756972656400000000000000000000005f82015250565b5f610d7e6015836107e5565b9150610d8982610d4a565b602082019050919050565b5f6020820190508181035f830152610dab81610d72565b9050919050565b7f5072696365206d7573742062652067726561746572207468616e2030000000005f82015250565b5f610de6601c836107e5565b9150610df182610db2565b602082019050919050565b5f6020820190508181035f830152610e1381610dda565b9050919050565b7f4e487b71000000000000000000000000000000000000000000000000000000005f52601160045260245ffd5b5f610e518261076e565b91507fffffffffffffffffffffffffffffffffffffffffffffffffffffffffffffffff8203610e8357610e82610e1a565b5b600182019050919050565b5f819050815f5260205f209050919050565b5f6020601f8301049050919050565b5f82821b905092915050565b5f60088302610eea7fffffffffffffffffffffffffffffffffffffffffffffffffffffffffffffffff82610eaf565b610ef48683610eaf565b95508019841693508086168417925050509392505050565b5f819050919050565b5f610f2f610f2a610f258461076e565b610f0c565b61076e565b9050919050565b5f819050919050565b610f4883610f15565b610f5c610f5482610f36565b848454610ebb565b825550505050565b5f90565b610f70610f64565b610f7b818484610f3f565b505050565b5b81811015610f9e57610f935f82610f68565b600181019050610f81565b5050565b601f821115610fe357610fb481610e8e565b610fbd84610ea0565b81016020851015610fcc578190505b610fe0610fd885610ea0565b830182610f80565b50505b505050565b5f82821c905092915050565b5f6110035f1984600802610fe8565b1980831691505092915050565b5f61101b8383610ff4565b9150826002028217905092915050565b611034826107db565b67ffffffffffffffff81111561104d5761104c610961565b5b6110578254610d1a565b611062828285610fa2565b5f60209050601f831160018114611093575f8415611081578287015190505b61108b8582611010565b8655506110f2565b601f1984166110a186610e8e565b5f5b828110156110c8578489015182556001820191506020850194506020810190506110a3565b868310156110e557848901516110e1601f891682610ff4565b8355505b6001600288020188555050505b505050505050565b5f60a08201905061110d5f8301886107cc565b818103602083015261111f818761082d565b90508181036040830152611133818661082d565b905061114260608301856107cc565b61114f60808301846108b5565b969550505050505056fea2646970667358221220fbffedd2a9146cf780f581f92c40c53bb818a779602c251b131b05b61448d3d664736f6c63430008150033",
  "immutableReferences": {},
  "source": "// SPDX-License-Identifier: MIT\r\npragma solidity ^0.8.0;\r\n\r\ncontract AgriMarketplace {\r\n    struct Product {\r\n        uint id;\r\n        string name;\r\n        string location;\r\n        uint price;\r\n        address payable seller;\r\n        address buyer;\r\n        bool purchased;\r\n    }\r\n\r\n    uint public productCount = 0;\r\n    mapping(uint => Product) public products;\r\n\r\n    event ProductCreated(\r\n        uint id,\r\n        string name,\r\n        string location,\r\n        uint price,\r\n        address seller\r\n    );\r\n\r\n    event ProductPurchased(\r\n        uint id,\r\n        address buyer\r\n    );\r\n\r\n    function createProduct(string memory _name, string memory _location, uint _price) public {\r\n        require(bytes(_name).length > 0, \"Product name required\");\r\n        require(_price > 0, \"Price must be greater than 0\");\r\n\r\n        productCount++;\r\n        products[productCount] = Product(productCount, _name, _location, _price, payable(msg.sender), address(0), false);\r\n\r\n        emit ProductCreated(productCount, _name, _location, _price, msg.sender);\r\n    }\r\n\r\n    function purchaseProduct(uint _id) public payable {\r\n        Product storage product = products[_id];\r\n        require(_id > 0 && _id <= productCount, \"Invalid ID\");\r\n        require(msg.value >= product.price, \"Insufficient payment\");\r\n        require(!product.purchased, \"Already purchased\");\r\n        require(product.seller != msg.sender, \"Seller can't buy own product\");\r\n\r\n        product.buyer = msg.sender;\r\n        product.purchased = true;\r\n        product.seller.transfer(msg.value);\r\n\r\n        emit ProductPurchased(_id, msg.sender);\r\n    }\r\n}\r\n",
  "sourcePath": "C:\\Users\\Sky\\Blockchain-agri-commerce-platform\\Blockchain-agri-commerce-platform\\contracts\\contracts\\AgriMarketplace.sol",
  "compiler": {
    "name": "solc",
    "version": "0.8.21+commit.d9974bed.Emscripten.clang"
  },
  "schemaVersion": "3.4.16",
  "updatedAt": "2025-05-25T00:20:35.105Z",
  "networkType": "ethereum",
  "devdoc": {
    "kind": "dev",
    "methods": {},
    "version": 1
  },
  "userdoc": {
    "kind": "user",
    "methods": {},
    "version": 1
  }
}